:020000020000FC
:0A0000003EC0189518953BC03AC0A9
:10001C0069C0546865726D6F6D6574657220563178
:10002C002E3020436F7079726967687420323031DA
:10003C00302020427920416E647269616E616B6977
:10004C0073202020202020486172697320202020FA
:10005C002020496E73696465203A202020202020DE
:10006C0043004F7574736964653A2020202020206A
:10007C0043000FE50DBF04E00EBF0FEF01BB07E01F
:10008C0007BB0CE004BBAA9AAB9A37D098D014D01B
:10009C0018D021D0BED01AD01ED0BBD0F8CF00EAD9
:1000AC0005BF00E40BBF089500E005BF0BBF08952A
:1000BC0000E006B907B908950F930EE806B90F9141
:1000CC00089500E407B909EC41D0089501E407B99B
:1000DC0009E83CD008950F9306B1006406B97894F2
:1000EC000F91089504B135B1602F72E0BAD0052F8D
:1000FC000A9519D0042F1FD018950F938AD000E3BE
:10010C0021D087D000E31ED084D000E31BD081D057
:10011C0008E31CD008E01AD03ED006E017D00CE063
:10012C0015D00F9108958ED0022F96D014D0032F96
:10013C0093D011D0089586D00EE20DD0032F8CD021
:10014C000AD00895C29802BB16D00895C29802BB7B
:10015C0012D01BD00895C29A02BB0DD016D00895B0
:10016C000F920F93C895002DF6DF31961A95D1F7A3
:10017C000F910F900895C09A00000000C098089548
:10018C000F9300ECE3DF0F9108951F9309D017FD37
:10019C00FDCF1F9108950F9301E0D8DF0F910895C3
:1001AC000F93C19AC29800E001BBC09A00000000F6
:1001BC0010B3C0980FEF01BBC1980F9108951F9316
:1001CC00EEE1F0E010E1CCDFDBDFEEE2F0E010E19D
:1001DC00C7DF31D0E0DFEEE3F0E010E1C1DFD0DFCC
:1001EC00EEE4F0E010E1BCDF26D0D5DFEEE5F0E088
:1001FC001FE0B6DFC5DFEEE6F0E01FE0B1DF0DE893
:10020C00A5DF0FEDA8DF0DECA1DF0FEDA4DF1F9133
:10021C00089547E956E062E96A95F1F75A95D9F7DE
:10022C004A95C1F7000008950F930AE0F2DF0A9592
:10023C00E9F70F9108950F930FE1EBDF0A95E9F7BA
:10024C000F910895602F74E60CD0152F642F7AE06F
:10025C0008D0252F342F08951F9310E3010F1F9101
:10026C000895441B89E0661F8A9511F4562F089552
:10027C00441F471B18F4470F8894F5CF0894F3CF0D
:00000001FF
